:100000000C9493000C94BB000C94BB000C94BB00AC
:100010000C94BB000C94BB000C94BB000C94BB0074
:100020000C94BB000C94BB000C9442040C94B404DC
:100030000C94BB000C94BB000C94BB000C94BB0054
:100040000C94BB000C94BB000C94BB000C94BB0044
:100050000C94BB000C94BB000C94BB000C94F803F4
:100060000C94BB000C94BB000C94BB000C94BB0024
:100070000C94BB000C94BB000C94BB000C94BB0014
:100080000C94BB000C94BB000C94BB000C94BB0004
:100090000C94BB000C94BB000C94BB000C94BB00F4
:1000A0000C94BB000C94BB000C94BB00080B00022A
:1000B0000202010009040000010202000005240000
:1000C0001001052401010104240206052406000193
:1000D0000705810310004009040100020A00000026
:1000E00007050202400000070583024000000403E8
:1000F000090412010002EF02014041233680000191
:100100000102030141726475696E6F204C4C43001B
:1001100041726475696E6F204C656F6E6172646FB9
:100120000000E4064F0811241FBECFEFDAE0DEBF67
:10013000CDBF21E0ACE3B1E001C01D92A73BB20707
:10014000E1F711E0A0E0B1E0E6E5F5E102C00590DD
:100150000D92AC33B107D9F710E0C2E9D0E004C08A
:100160002197FE010E948C08C139D107C9F70E946E
:1001700007070C949E0A0C9400002FB7F894809106
:10018000590190915A01A0915B01B0915C012FBF80
:100190008093650190936601A0936701B093680115
:1001A000E0915D01F0915E010680F781E02D8DE523
:1001B00091E0099597FF26C02FB7F89480915901D7
:1001C00090915A01A0915B01B0915C012FBF4091C9
:1001D0006501509166016091670170916801841B0F
:1001E000950BA60BB70B4091610150916201609194
:1001F00063017091640184179507A607B70780F221
:100200008FEF9FEF0895FC0180915801811103C089
:100210008FEF9FEF08959FB7F89482E08093E900F5
:100220002091F20030E01216130614F421E030E0C1
:100230002115310559F0289884E680935701809163
:10024000F10080838091F200882319F09FBFC901DB
:1002500008958BE68093E800F9CF80914F018111DA
:100260000DC082E080934B0184E080934C0110929A
:100270004E0110924D0181E080934F018BE491E09B
:1002800008953FB7F8948091470190914801A0915B
:100290004901B0914A0126B5A89B05C02F3F19F02E
:1002A0000196A11DB11D3FBFBA2FA92F982F8827F6
:1002B000820F911DA11DB11DBC01CD0142E0660F51
:1002C000771F881F991F4A95D1F70895CF92DF9223
:1002D000EF92FF920E9441016B017C010E9441015B
:1002E000DC01CB018C199D09AE09BF09883E934002
:1002F000A105B10598F3FF90EF90DF90CF9008959E
:100300000895409140015091410120913E0130916A
:100310003F0142175307B4F49091E8009570E1F360
:100320009091E80092FD19C08093F1008091400106
:100330009091410101968F739927892B19F48EEFC3
:100340008093E80080914001909141010196909343
:1003500041018093400181E0089580E00895CF92AB
:10036000DF92EF92FF920F931F93CF93DF931F9231
:10037000CDB7DEB7182F062FE42E862F880F8E5F9D
:1003800099830E94810183E00E948101F12EC12E98
:100390009981D92E8C2D8F19801798F4F601E7FEDC
:1003A00002C0849101C080810E948101182F80E0E9
:1003B0000E9481018123FFEFCF1ADF0A8111EACF6A
:1003C00001C081E00F90DF91CF911F910F91FF90BD
:1003D000EF90DF90CF900895DF92EF92FF920F930E
:1003E0001F93CF93DF93D82E8A017B01E40EF51E75
:1003F000EB01CE15DF0571F0D7FE03C0FE0184913D
:1004000001C088810E94810121968111F2CF8FEF76
:100410009FEF01C0C801DF91CF911F910F91FF9015
:10042000EF90DF9008950F931F93CF93DF931F9268
:10043000CDB7DEB782E0898342E450E06CEA70E039
:1004400080E80E94EC010E942D01DC0112960D91C2
:100450001C9113970115110569F0D801ED91FC91DC
:100460000280F381E02DBE016F5F7F4FC8010995C7
:1004700097FF07C089810F90DF91CF911F910F9156
:100480000895F80100851185E5CF615030F0209185
:10049000F100FC0120830196F8CF289884E6809330
:1004A00057010895CF92DF92EF92FF920F931F931F
:1004B000CF93DF936C017A018B01C0E0D0E0CE15C1
:1004C000DF0589F0D8016D918D01D601ED91FC9188
:1004D0000190F081E02DC6010995892B11F47E0170
:1004E00002C02196ECCFC701DF91CF911F910F91F0
:1004F000FF90EF90DF90CF9008957F928F929F9220
:10050000AF92BF92CF92DF92EF92FF920F931F9321
:10051000CF93DF936C015B017A0180910B018823FB
:1005200009F466C080915801882309F461C0809164
:10053000440180FF05C08091E00082608093E0006C
:10054000E70110E00AEF83E0982E90E4792E2AE389
:10055000822E209709F443C08FB7F8949092E90057
:100560009091E80095FF06C09091F200272D291B7D
:10057000922F01C090E08FBF911105C00150C1F1D1
:100580000E946601E6CF292F30E0C217D3070CF492
:100590009C2F8FB7F8949092E9002091E80025FFF6
:1005A0001CC0292F30E0C21BD30BF501915020F065
:1005B00041914093F100FACFA20EB31E112319F01E
:1005C0008092E80009C09091E80095FD06C08092F5
:1005D000E80011E0209709F010E08FBFBACF1111A9
:1005E000BBCF5D9884E6809345011E141F0444F040
:1005F00081E090E0F6019383828380E090E001C087
:10060000C701DF91CF911F910F91FF90EF90DF9085
:10061000CF90BF90AF909F908F907F900895CF9391
:10062000DF931F92CDB7DEB76983DC01ED91FC91BA
:100630000280F381E02D41E050E0BE016F5F7F4F0B
:1006400009950F90DF91CF91089583E08093E900A1
:100650008091F200882319F08AE38093E8000895DE
:10066000CF93DF931F92CDB7DEB7FC0184859585CC
:1006700097FD05C02FEF3FEF358724870BC0CE01D4
:1006800001960E940301019719F4898190E002C04C
:100690008FEF9FEF0F90DF91CF9108950F931F93EE
:1006A000CF93DF931F92CDB7DEB78C01FC01848519
:1006B000958597FF0EC0CE0101960E940301019718
:1006C00019F4298130E002C02FEF3FEFF8013587A0
:1006D0002487F801848595850F90DF91CF911F9134
:1006E0000F910895FC018485958597FD0BC09FB7F8
:1006F000F89482E08093E9008091F2009FBF90E03F
:10070000019608959FB7F89482E08093E900809164
:10071000F2009FBF90E00895BC01009791F0FC01AA
:1007200001900020E9F73197AF01481B590BE09188
:100730005D01F0915E010280F381E02D8DE591E095
:10074000099480E090E008950E94890A0F931F9316
:10075000CF93DF93EC0188819981009729F02A815A
:100760003B812617370788F48B016F5F7F4F0E940C
:10077000BF09009761F0998388831B830A832C81CA
:100780003D81232B11F4FC01108281E001C080E047
:10079000DF91CF911F910F910895EF92FF920F93E8
:1007A0001F93CF93DF93EC017B018A01BA010E9472
:1007B000A6032881398181110DC02115310519F059
:1007C000C9010E942709198218821D821C821B827E
:1007D0001A8206C01D830C83B701C9010E94970AC3
:1007E000CE01DF91CF911F910F91FF90EF9008956F
:1007F0001F920F920FB60F9211242F933F938F9356
:100800009F93AF93BF938091590190915A01A0910A
:100810005B01B0915C013091460123E0230F2D373D
:1008200020F40196A11DB11D05C026E8230F0296F4
:10083000A11DB11D209346018093590190935A0147
:10084000A0935B01B0935C018091470190914801B6
:10085000A0914901B0914A010196A11DB11D80935B
:10086000470190934801A0934901B0934A01BF9179
:10087000AF919F918F913F912F910F900FBE0F904D
:100880001F9018951F920F920FB60F9211248F93FD
:100890009F938091E1009091E100937F9093E1001C
:1008A00083FF0FC01092E90091E09093EB0010924B
:1008B000EC0092E39093ED001092580198E0909331
:1008C000F00082FF20C093E09093E9009091F20045
:1008D000992319F09AE39093E800909145019923A8
:1008E00039F090914501915090934501992389F1F8
:1008F00090915701992339F090915701915090931D
:100900005701992341F184FF10C08091E2008E7E4F
:1009100081608093E2008091E1008F7E8093E1000E
:10092000809144018E7E806111C080FF16C080914D
:10093000E2008E7E80618093E2008091E1008E7EF5
:100940008093E100809144018E7E81608093440118
:1009500004C05D9ACDCF289AD6CF9F918F910F90EA
:100960000FBE0F901F9018951F920F920FB60F9207
:100970001124CF92DF92EF92FF920F931F932F9348
:100980003F934F935F936F937F938F939F93AF9317
:10099000BF93EF93FF93CF93DF93CDB7DEB76C9701
:1009A000DEBFCDBF1092E9008091E80083FFEDC16A
:1009B00068E0CE0145960E94450282EF8093E800F0
:1009C0008D8987FF05C09091E80090FFFCCF03C0A0
:1009D0009EEF9093E800982F907609F0C6C09E890C
:1009E0002F89188D91110CC0803829F48091430112
:1009F0008093F10002C01092F1001092F10048C102
:100A0000422F50E0512B913051F4811141C14130BE
:100A1000510509F03DC1809143018D7F0BC093309A
:100A200061F4811135C14130510509F031C1809126
:100A300043018260809343012BC1953041F4809142
:100A4000E80080FFFCCF20682093E30021C19630AE
:100A500009F05FC0EB8CFC8C1092E9001092410110
:100A600010924001123091F510923F0110923E0118
:100A70000E94130299E0BE016F5F7F4FDB01E92FF7
:100A80001D92EA95E9F799831A8391E09E8390EA93
:100A900098879AEF99872091400130914101275F13
:100AA0003F4F3C832B838D831092E90010924101CC
:100AB00010924001F0923F01E0923E0149E050E087
:100AC00080E00E94EC010E941302E2C0F0923F011C
:100AD000E0923E010E942D01DC011296ED90FC9007
:100AE0001397E114F10409F4C0C0D701ED91FC9112
:100AF0000480F581E02DBE016B5E7F4FC701099533
:100B0000009719F00CF0C4C0C7C0F701E084F1846D
:100B1000E8CF973009F4C0C0983021F481E0809389
:100B2000F100B6C0993009F0B3C0837009F0B4C0C9
:100B3000E3E1F1E081E021E036E39081992361F087
:100B40008093E9002093EB0091919093EC00309317
:100B5000ED008F5F873089F78EE78093EA0010926F
:100B6000EA008F898093580193C08B8D9C8D1092E1
:100B7000E900109241011092400190933F0180934F
:100B80003E01898D811156C08E899D89913A59F413
:100B9000813209F081C047E050E064E071E080E01C
:100BA0000E94EC0175C0913209F076C0833289F45D
:100BB000888D90E0982F88272F89822BA0E0B0E0C5
:100BC0008093000190930101A0930201B09303016F
:100BD0005FC0803269F48091E80082FFFCCF67E05B
:100BE00084E091E00E9445028BEF8093E80006C00C
:100BF000823209F04DC08F8980930B0180914201B0
:100C0000882319F0EEEFFAE002C0E0E0F8E080910E
:100C1000040190910501A0910601B0910701803B6C
:100C20009440A105B10509F07BC080910B0180FFC4
:100C300093C076C00E942D01DC0112960D911C918B
:100C400013970115110541F1D801ED91FC91019027
:100C5000F081E02DBE016B5E7F4FC80109958111C7
:100C600017C0F80100851185ECCF113009F44EC092
:100C7000133091F48F89882309F445C0823081F4C0
:100C800040E860E180E191E00E94AF01882321F01B
:100C90008EEF8093E80079C081E28093EB0075C00D
:100CA000813029F440E86BE084E091E0EDCF8330BF
:100CB00099F70E942D01DC011296ED90FC9013979C
:100CC0008E010F5F1F4F6801E114F10479F0D70125
:100CD000ED91FC910680F781E02DB801C7010995DF
:100CE000080F111DF701E084F184EECFD8011C92AA
:100CF000F60101900020E9F73197BF016C197D09D9
:100D000040E0C601C1CF6EEE70E002C062EF70E05D
:100D10006115710509F2FB01449150E080E840CF74
:100D20000FB6F894A8958091600088618093600068
:100D3000109260000FBEA895EE3F2AE0F20739F04E
:100D40008091FE0A9091FF0A91838083A1CF109237
:100D5000FF0A1092FE0A9CCFEE3F8AE0F80731F0BE
:100D6000808191819093FF0A8093FE0A87E797E73D
:100D7000918380839BE088E10FB6F894A8958093D7
:100D800060000FBE9093600083CF6C960FB6F8940E
:100D9000DEBF0FBECDBFDF91CF91FF91EF91BF912D
:100DA000AF919F918F917F916F915F914F913F9103
:100DB0002F911F910F91FF90EF90DF90CF900F90A8
:100DC0000FBE0F901F901895EDE5F1E0138212828F
:100DD00088EE93E0A0E0B0E084839583A683B78398
:100DE0008DE191E0918380838FEF9FEF95878487DA
:100DF000EDEAF1E0118210821382128215821482D0
:100E000040E050E06BE371E0CF010C94CD03CF9351
:100E1000DF93CDB7DEB728970FB6F894DEBF0FBECD
:100E2000CDBF789484B5826084BD84B5816084BD73
:100E300085B5826085BD85B5816085BD80916E0078
:100E4000816080936E0010928100809181008260A9
:100E500080938100809181008160809381008091E6
:100E600080008160809380008091910082608093F7
:100E70009100809191008160809391008091900019
:100E80008160809390008091C10084608093C10054
:100E90008091C10082608093C1008091C100816017
:100EA0008093C1008091C30081608093C3008091D2
:100EB000C00082608093C0008091C20081608093F6
:100EC000C20080917A00846080937A0080917A00D9
:100ED000826080937A0080917A00816080937A00AA
:100EE00080917A00806880937A0010925801109265
:100EF0004301109244018091D70081608093D70014
:100F000080EA8093D80089B5806189BD89B5826007
:100F100089BD09B400FEFDCF0E9466018091D80012
:100F20008F7C80618093D8008091E000807F8093E7
:100F3000E0008091E1008E7E8093E1008DE080935F
:100F4000E200559A209AEEEFFFE7859194918B3F4E
:100F50009C4D19F481E0809342018FEF9FEF9093B5
:100F60006A018093690110923D0110923C0180E07A
:100F7000E82E80E0F82E8DE591E00E947203892B27
:100F800009F486C01A8219821C821B821E821D826D
:100F900040E050E06BE371E0CE0101960E94CD038A
:100FA0000E94BD0097FD1BC08F8318860D811E8196
:100FB0000F5F1F4FB801CE0101960E94A603882340
:100FC00079F329813A818D819E81BE01695F7F4FCE
:100FD000820F931F0E94970A1E830D83E1CF809199
:100FE000AD019091AE010097C9F069817A816115D8
:100FF000710591F04091AF015091B0012D813E817A
:101000004217530748F00E94970A8D819E81909362
:10101000B2018093B10118C00E94270989819A8189
:101020009093AE018093AD018B819C819093B00130
:101030008093AF018D819E819093B2018093B10125
:101040001A8219821C821B821E821D8289819A81CA
:101050000E94270989E291E00E948C03E0915D01E2
:10106000F0915E014091B1015091B2016091AD01EA
:101070007091AE010280F381E02D8DE591E009953C
:1010800086E391E00E948C0389E391E00E948C0347
:10109000E114F10409F46FCF0E9400006CCF80913D
:1010A000AD019091AE010C9427092F923F924F927F
:1010B0005F926F927F928F929F92AF92BF92CF92E8
:1010C000DF92EF92FF920F931F93CF93DF93CDB7F1
:1010D000DEB7CA1BDB0B0FB6F894DEBF0FBECDBF69
:1010E00009942A88398848885F846E847D848C843A
:1010F0009B84AA84B984C884DF80EE80FD800C8143
:101100001B81AA81B981CE0FD11D0FB6F894DEBF25
:101110000FBECDBFED010895EE0FFF1F0590F491B6
:10112000E02D0994CF93DF938230910510F482E093
:1011300090E0E091B501F091B60120E030E0C0E030
:10114000D0E0309711F14081518148175907C0F024
:101150004817590761F482819381209719F09B8386
:101160008A832BC09093B6018093B50126C02115C8
:10117000310519F04217530718F49A01BE01DF0137
:10118000EF010280F381E02DDCCF2115310509F15B
:10119000281B390B2430310590F412968D919C91C7
:1011A00013976115710521F0FB019383828304C0BD
:1011B0009093B6018093B501FD01329644C0FD01C4
:1011C000E20FF31F81939193225031092D933C93A9
:1011D0003AC02091B3013091B401232B41F4209106
:1011E0000E0130910F013093B4012093B30120918F
:1011F0000C0130910D012115310541F42DB73EB799
:101200004091100150911101241B350BE091B30165
:10121000F091B401E217F307A0F42E1B3F0B28173F
:10122000390778F0AC014E5F5F4F2417350748F05F
:101230004E0F5F1F5093B4014093B301819391937C
:1012400002C0E0E0F0E0CF01DF91CF9108950F936D
:101250001F93CF93DF93009709F48CC0FC01329762
:10126000138212820091B5011091B601011511058A
:1012700081F420813181820F931F2091B30130913D
:10128000B4012817390779F5F093B401E093B3015D
:1012900071C0D80140E050E0AE17BF0750F412967D
:1012A0002D913C911397AD012115310509F1D9011B
:1012B000F3CF9D01DA013383228360817181860F30
:1012C000971F8217930769F4EC0128813981260F53
:1012D000371F2E5F3F4F318320838A819B81938309
:1012E0008283452B29F4F093B601E093B50142C007
:1012F0001396FC93EE931297ED01499159919E013B
:10130000240F351FE217F30771F480819181840F58
:10131000951F029611969C938E93828193811396CA
:101320009C938E931297E0E0F0E0D80112968D9195
:101330009C911397009719F0F8018C01F6CF8D91CD
:101340009C9198012E5F3F4F820F931F2091B30114
:101350003091B4012817390769F4309729F41092B5
:10136000B6011092B50102C0138212821093B4012B
:101370000093B301DF91CF911F910F910895A0E0E9
:10138000B0E0E5ECF9E00C945908EC01009721F489
:10139000CB010E949208B8C0FC01E60FF71F9C0128
:1013A00022503109E217F30708F4ACC0D9010D91BE
:1013B0001C91119706171707B0F00530110508F4B6
:1013C0009FC0C80104978617970708F499C0025078
:1013D0001109061B170B019311936D937C93CF0199
:1013E0000E9427098DC05B01A01AB10A4C01800E32
:1013F000911EA091B501B091B60140E050E0E12C02
:10140000F12C109709F44AC0A815B905D1F56D90D3
:101410007C901197630182E0C80ED11CCA14DB04D2
:1014200080F1A3014A195B096A0182E0C80ED11C50
:101430001296BC9012971396AC91B5E0CB16D104DE
:1014400040F0B282A38351834083D9016D937C9392
:101450000AC00E5F1F4FC301800F911FF9019183D6
:101460008083EB2DFA2FE114F10431F0D7011396AC
:10147000FC93EE93129744C0F093B601E093B5014C
:101480003FC08D919C9111974817590708F4AC0102
:101490007D0112960D90BC91A02DB3CF8091B30128
:1014A0009091B40188159905E1F446175707C8F4DF
:1014B00080910C0190910D01009741F48DB79EB77A
:1014C0004091100150911101841B950BE817F90709
:1014D000C8F4F093B401E093B301F9017183608320
:1014E0000FC0CB010E9492087C01009759F0A8011F
:1014F000BE010E948E0ACE010E942709C70104C0C6
:10150000CE0102C080E090E0CDB7DEB7EEE00C94F3
:10151000750881E090E0F8940C949E0AFB01DC01D0
:1015200002C001900D9241505040D8F70895FB0140
:10153000DC0101900D920020E1F7089510E0C2E96E
:10154000D0E004C0FE010E948C082196C339D10767
:06155000C9F7F894FFCF7B
:10155600FFFFFFFF00E10000000000000000B701F0
:10156600800000C18081000000000000000F037DA4
:1015760002720330034E0325032D3E205265736924
:0C1586007665203A20003C2D000D0A0084
:00000001FF
